:100000000C945D000C9485000C9485000C94850084
:100010000C9485000C9485000C9485000C9485004C
:100020000C9485000C9485000C9485000C9485003C
:100030000C9485000C9485000C9485000C9485002C
:100040000C94B1000C9485000C9489030C94CC039F
:100050000C9485000C9485000C9485000C9485000C
:100060000C9485000C94850000000007000201003C
:100070000003040600000000000000000102040864
:100080001020408001020408102001020408102002
:10009000040404040404040402020202020203032E
:1000A0000303030300000000250028002B000000CC
:1000B0000000240027002A008F0411241FBECFEF68
:1000C000D8E0DEBFCDBF11E0A0E0B1E0E2E0FAE0B1
:1000D00002C005900D92A031B107D9F721E0A0E14F
:1000E000B1E001C01D92A33CB207E1F710E0CDE5FD
:1000F000D0E004C02197FE010E94F904CC35D1075D
:10010000C9F70E94CA040C94FF040C94000061E03B
:100110008DE00E94B60140E855E260E070E089E1C0
:1001200091E00C94070461E08DE00E94F20164E626
:1001300070E080E090E00E942C0160E08DE00E9481
:10014000F20164E873E080E090E00E942C010E94DC
:10015000FB00AB01BC012AE030E089E191E00C94A6
:10016000DD021F920F920FB60F9211242F933F932F
:100170008F939F93AF93BF93809111019091120140
:10018000A0911301B09114013091100123E0230FCD
:100190002D3720F40196A11DB11D05C026E8230FBF
:1001A0000296A11DB11D209310018093110190931F
:1001B0001201A0931301B093140180911501909145
:1001C0001601A0911701B09118010196A11DB11D52
:1001D0008093150190931601A0931701B093180115
:1001E000BF91AF919F918F913F912F910F900FBE33
:1001F0000F901F9018952FB7F8946091110170918E
:10020000120180911301909114012FBF08953FB7FF
:10021000F8948091150190911601A0911701B09169
:10022000180126B5A89B05C02F3F19F00196A11D06
:10023000B11D3FBFBA2FA92F982F8827820F911D7C
:10024000A11DB11DBC01CD0142E0660F771F881FC3
:10025000991F4A95D1F70895CF92DF92EF92FF92BE
:10026000CF93DF936B017C010E940701EB01C11466
:10027000D104E104F10479F00E9407016C1B7D0BAD
:10028000683E7340A0F381E0C81AD108E108F10884
:10029000C851DC4FECCFDF91CF91FF90EF90DF9012
:1002A000CF900895789484B5826084BD84B58160D0
:1002B00084BD85B5826085BD85B5816085BDEEE66E
:1002C000F0E0808181608083E1E8F0E0108280814D
:1002D00082608083808181608083E0E8F0E08081BB
:1002E00081608083E1EBF0E0808184608083E0EBDB
:1002F000F0E0808181608083EAE7F0E080818460C3
:10030000808380818260808380818160808380811E
:10031000806880831092C1000895833081F028F4B2
:10032000813099F08230A1F008958630A9F08730AD
:10033000B9F08430D1F4809180008F7D03C080912A
:1003400080008F7780938000089584B58F7702C0F6
:1003500084B58F7D84BD08958091B0008F7703C0F0
:100360008091B0008F7D8093B0000895CF93DF938C
:1003700090E0FC01E458FF4F2491FC01E057FF4F4F
:100380008491882361F190E0880F991FFC01E25568
:10039000FF4FC591D491FC01EC55FF4FA591B4914D
:1003A000611109C09FB7F8948881209582238883C2
:1003B000EC912E230BC0623061F49FB7F894388122
:1003C000822F809583238883EC912E2B2C939FBFC3
:1003D00006C08FB7F894E8812E2B28838FBFDF915A
:1003E000CF9108951F93CF93DF93282F30E0F90129
:1003F000E859FF4F8491F901E458FF4FD491F90176
:10040000E057FF4FC491CC23C9F0162F81110E94F1
:100410008D01EC2FF0E0EE0FFF1FEC55FF4FA59183
:10042000B4918FB7F894111105C09C91ED2FE09510
:10043000E92302C0EC91ED2BEC938FBFDF91CF91BC
:100440001F910895CF92DF92EF92FF920F931F9327
:10045000CF93DF936C01EB017B01E40EF51E00E00E
:1004600010E0CE15DF0561F06991D601ED91FC91A8
:100470000190F081E02DC6010995080F191FF1CFF9
:10048000C801DF91CF911F910F91FF90EF90DF9006
:10049000CF9008956115710579F0FB01019000205E
:1004A000E9F73197AF01461B570BDC01ED91FC9149
:1004B0000280F381E02D099480E090E00895DC0152
:1004C000ED91FC910190F081E02D09940F931F9321
:1004D000CF93DF93EC016DE00E945F028C016AE034
:1004E000CE010E945F02800F911FDF91CF911F917B
:1004F0000F9108958F929F92AF92BF92CF92DF9209
:10050000EF92FF920F931F93CF93DF93CDB7DEB798
:10051000A1970FB6F894DEBF0FBECDBF6C01142FAC
:10052000E52FCB01022F19A2223008F40AE07E0148
:1005300021E2E20EF11C802E912CA12CB12C612F16
:100540007E2FA50194010E94D704029F1019112447
:1005500081E0E81AF1081A3014F4105D01C0195C4A
:10056000F7011083122FE32FCA01232B242B252BF5
:1005700031F7B701C6010E944A02A1960FB6F8945E
:10058000DEBF0FBECDBFDF91CF911F910F91FF90C6
:10059000EF90DF90CF90BF90AF909F908F90089595
:1005A0002115310541F4DC01ED91FC910190F081C0
:1005B000E02D642F09940C947A020F931F93CF932C
:1005C000DF93EC010E94D0028C01CE010E946602F2
:1005D000800F911FDF91CF911F910F910895FC0122
:1005E00024853585F901E05CFF4F80819181329649
:1005F00020813181821B930B8F7399270895DC0131
:100600001C96ED91FC911D97DF01A05CBF4F2D91D1
:100610003C91119712968D919C911197281739074B
:1006200039F08D919C91E80FF91F808190E0089539
:100630008FEF9FEF0895FC01A485B585FD01E05C77
:10064000FF4F2081318132968081918128173907AF
:1006500079F080819181A80FB91F8C91208131811F
:100660002F5F3F4F2F7333273183208390E008950E
:100670008FEF9FEF0895FC0181A1882329F0A489C1
:10068000B5898C9186FFFBCF11A208950F931F931C
:10069000CF93DF93FC01A685B7858D01005C1F4FCA
:1006A000E8018881998101968F739927AD014E5B8E
:1006B0005F4FEA012881398182179307D1F3E8015E
:1006C00028813981A20FB31F6C93A685B785A05CE2
:1006D000BF4F11969C938E93A689B7892C9181E088
:1006E00090E0078C02C0880F991F0A94E2F7822BD2
:1006F0008C9381E081A30488F589E02D808180645A
:10070000808381E090E0DF91CF911F910F91089558
:1007100008951F920F920FB60F9211242F934F93AB
:100720005F938F939F93EF93FF938091C00082FD1F
:100730001CC02091C6008091BF019091C00101961C
:100740008F7399274091C1015091C2018417950779
:1007500071F0E091BF01F091C001E158FE4F20839C
:100760009093C0018093BF0102C08091C600FF91A9
:10077000EF919F918F915F914F912F910F900FBEAD
:100780000F901F90189589E191E00E94EF02892B4C
:1007900011F00C94880308951F920F920FB60F92D8
:1007A00011242F933F938F939F93EF93FF93209167
:1007B0007B0130917C0180917D0190917E01281711
:1007C000390731F48091C1008F7D8093C10014C03E
:1007D000E0917D01F0917E01E55CFE4F20818091EA
:1007E0007D0190917E0101968F73992790937E01F0
:1007F00080937D012093C600FF91EF919F918F918F
:100800003F912F910F900FBE0F901F901895CF9290
:10081000DF92EF92FF920F931F93CF93DF93EC0140
:100820006A017B014115514E6105710509F1EC89A1
:10083000FD8981E090E008A002C0880F991F0A940A
:10084000E2F7808360E079E08DE390E0A701960114
:100850000E94D70489019A01015011092109310927
:100860003695279517950795980101151041A8F021
:10087000EC89FD89108260E874E88EE190E0A701C0
:1008800096010E94D704DA01C9010197A109B109B3
:10089000B695A795979587959C01E889F989308346
:1008A000EA89FB89208319A2EE89FF89408181E0D2
:1008B00090E09C010C8C02C0220F331F0A94E2F7D7
:1008C000242B2083EE89FF8940819C010D8C02C07E
:1008D000220F331F0A94E2F7242B2083EE89FF892D
:1008E00040819C010E8C02C0220F331F0A94E2F754
:1008F000242B2083EE89FF8920810F8C02C0880F72
:10090000991F0A94E2F7809582238083DF91CF912B
:100910001F910F91FF90EF90DF90CF900895E9E144
:10092000F1E01382128288EE93E0A0E0B0E08483CD
:100930009583A683B78384E091E0918380838FE7DA
:1009400091E0958784878BE391E09787868785EC94
:1009500090E0918B808B84EC90E0938B828B80EC89
:1009600090E0958B848B81EC90E0978B868B82EC6A
:1009700090E0918F808F86EC90E0938F828F84E05F
:10098000848F83E0858F87E0868F85E0878F81E085
:1009900080A308950E9452010E948700C3ECD3E017
:1009A0000E9493002097E1F30E94C303F9CFA1E2D4
:1009B0001A2EAA1BBB1BFD010DC0AA1FBB1FEE1FD9
:1009C000FF1FA217B307E407F50720F0A21BB30B24
:1009D000E40BF50B661F771F881F991F1A9469F7A0
:1009E00060957095809590959B01AC01BD01CF01FC
:1009F0000895EE0FFF1F0590F491E02D0994F894EF
:020A0000FFCF26
:100A02000000000046032202EF021B03FF023B0329
:00000001FF
